{
  "transactions": [
    {
      "hash": "0x3ae612e1f5426da6fe647e4db02af332610dc8698256a41589f863198e2afdd8",
      "transactionType": "CALL",
      "contractName": null,
      "contractAddress": "0x99eb4FA25e0a3a4Eb8E7b53370D74ca76AF4b575",
      "function": "withdraw(address,uint256)",
      "arguments": [
        "0x965B0E63e00E7805569ee3B428Cf96330DFc57EF",
        "3500000000000000000"
      ],
      "transaction": {
        "type": "0x02",
        "from": "0x965b0e63e00e7805569ee3b428cf96330dfc57ef",
        "to": "0x99eb4fa25e0a3a4eb8e7b53370d74ca76af4b575",
        "gas": "0x14310",
        "value": "0x0",
        "data": "0xf3fef3a3000000000000000000000000965b0e63e00e7805569ee3b428cf96330dfc57ef00000000000000000000000000000000000000000000000030927f74c9de0000",
        "nonce": "0x373",
        "accessList": []
      },
      "additionalContracts": [],
      "isFixedGasLimit": false
    }
  ],
  "receipts": [],
  "libraries": [],
  "pending": [
    "0x3ae612e1f5426da6fe647e4db02af332610dc8698256a41589f863198e2afdd8"
  ],
  "returns": {},
  "timestamp": 1710416744,
  "chain": 80001,
  "multi": false,
  "commit": "42834ae"
}