{
  "transactions": [
    {
      "hash": "0x3ae612e1f5426da6fe647e4db02af332610dc8698256a41589f863198e2afdd8",
      "transactionType": "CALL",
      "contractName": null,
      "contractAddress": "0x99eb4FA25e0a3a4Eb8E7b53370D74ca76AF4b575",
      "function": "withdraw(address,uint256)",
      "arguments": [
        "0x965B0E63e00E7805569ee3B428Cf96330DFc57EF",
        "3500000000000000000"
      ],
      "transaction": {
        "type": "0x02",
        "from": "0x965b0e63e00e7805569ee3b428cf96330dfc57ef",
        "to": "0x99eb4fa25e0a3a4eb8e7b53370d74ca76af4b575",
        "gas": "0x14310",
        "value": "0x0",
        "data": "0xf3fef3a3000000000000000000000000965b0e63e00e7805569ee3b428cf96330dfc57ef00000000000000000000000000000000000000000000000030927f74c9de0000",
        "nonce": "0x373",
        "accessList": []
      },
      "additionalContracts": [],
      "isFixedGasLimit": false
    }
  ],
  "receipts": [
    {
      "transactionHash": "0x3ae612e1f5426da6fe647e4db02af332610dc8698256a41589f863198e2afdd8",
      "transactionIndex": "0x10",
      "blockHash": "0x04df3f969366305c68b049de94e589625a668ecb432084b4b17f4c74087c6dc8",
      "blockNumber": "0x2cdb5f0",
      "from": "0x965B0E63e00E7805569ee3B428Cf96330DFc57EF",
      "to": "0x99eb4FA25e0a3a4Eb8E7b53370D74ca76AF4b575",
      "cumulativeGasUsed": "0x1cfea5",
      "gasUsed": "0xe9e5",
      "contractAddress": null,
      "logs": [
        {
          "address": "0x0000000000000000000000000000000000001010",
          "topics": [
            "0xe6497e3ee548a3372136af2fcb0696db31fc6cf20260707645068bd3fe97f3c4",
            "0x0000000000000000000000000000000000000000000000000000000000001010",
            "0x00000000000000000000000099eb4fa25e0a3a4eb8e7b53370d74ca76af4b575",
            "0x000000000000000000000000965b0e63e00e7805569ee3b428cf96330dfc57ef"
          ],
          "data": "0x00000000000000000000000000000000000000000000000030927f74c9de000000000000000000000000000000000000000000000000000030927f74c9de00000000000000000000000000000000000000000000000000004a3092d772886e0700000000000000000000000000000000000000000000000000000000000000000000000000000000000000000000000000000000000000007ac3124c3c666e07",
          "blockHash": "0x04df3f969366305c68b049de94e589625a668ecb432084b4b17f4c74087c6dc8",
          "blockNumber": "0x2cdb5f0",
          "transactionHash": "0x3ae612e1f5426da6fe647e4db02af332610dc8698256a41589f863198e2afdd8",
          "transactionIndex": "0x10",
          "logIndex": "0x33",
          "removed": false
        },
        {
          "address": "0x99eb4FA25e0a3a4Eb8E7b53370D74ca76AF4b575",
          "topics": [
            "0x69ca02dd4edd7bf0a4abb9ed3b7af3f14778db5d61921c7dc7cd545266326de2",
            "0x000000000000000000000000965b0e63e00e7805569ee3b428cf96330dfc57ef"
          ],
          "data": "0x00000000000000000000000000000000000000000000000030927f74c9de0000",
          "blockHash": "0x04df3f969366305c68b049de94e589625a668ecb432084b4b17f4c74087c6dc8",
          "blockNumber": "0x2cdb5f0",
          "transactionHash": "0x3ae612e1f5426da6fe647e4db02af332610dc8698256a41589f863198e2afdd8",
          "transactionIndex": "0x10",
          "logIndex": "0x34",
          "removed": false
        },
        {
          "address": "0x0000000000000000000000000000000000001010",
          "topics": [
            "0x4dfe1bbbcf077ddc3e01291eea2d5c70c2b422b415d95645b9adcfd678cb1d63",
            "0x0000000000000000000000000000000000000000000000000000000000001010",
            "0x000000000000000000000000965b0e63e00e7805569ee3b428cf96330dfc57ef",
            "0x0000000000000000000000005082f249cdb2f2c1ee035e4f423c46ea2dab3ab1"
          ],
          "data": "0x000000000000000000000000000000000000000000000000000661bc0374dc000000000000000000000000000000000000000000000000004a39636836da1bf700000000000000000000000000000000000000000000077991e21c1c15428cb60000000000000000000000000000000000000000000000004a3301ac33653ff700000000000000000000000000000000000000000000077991e87dd818b768b6",
          "blockHash": "0x04df3f969366305c68b049de94e589625a668ecb432084b4b17f4c74087c6dc8",
          "blockNumber": "0x2cdb5f0",
          "transactionHash": "0x3ae612e1f5426da6fe647e4db02af332610dc8698256a41589f863198e2afdd8",
          "transactionIndex": "0x10",
          "logIndex": "0x35",
          "removed": false
        }
      ],
      "status": "0x1",
      "logsBloom": "0x00000000000000000000000000000000000000000000000000000000020000000000000002000000000000100000000000008400000000000000000000000000000000000002000000000000800004900000000000000000000100000000000000000000000000000000000000000040000000000000000080000000000004000000000000000000000000200000000000000000000000000000000000000000200000000000000000000000000000000000000000100000000000000000004000000000000000000001000000000000004000000000800000108000000000000000000000000082000000100000000000000000000000000000000000100000",
      "type": "0x2",
      "effectiveGasPrice": "0x6fc23ac0f"
    }
  ],
  "libraries": [],
  "pending": [],
  "returns": {},
  "timestamp": 1710416758,
  "chain": 80001,
  "multi": false,
  "commit": "42834ae"
}