{
  "transactions": [
    {
      "hash": "0xdbfd7571adbba6a2decbab5cfe39417dc39ca0d50d2042f22f32a6ea6a40b287",
      "transactionType": "CALL",
      "contractName": null,
      "contractAddress": "0x7Bb88774d8F2c15779C8f8278C4ed8E5729d1678",
      "function": "withdraw(address,uint256)",
      "arguments": [
        "0x965B0E63e00E7805569ee3B428Cf96330DFc57EF",
        "4000000000000000000"
      ],
      "transaction": {
        "type": "0x02",
        "from": "0x965b0e63e00e7805569ee3b428cf96330dfc57ef",
        "to": "0x7bb88774d8f2c15779c8f8278c4ed8e5729d1678",
        "gas": "0x14310",
        "value": "0x0",
        "data": "0xf3fef3a3000000000000000000000000965b0e63e00e7805569ee3b428cf96330dfc57ef0000000000000000000000000000000000000000000000003782dace9d900000",
        "nonce": "0x36e",
        "accessList": []
      },
      "additionalContracts": [],
      "isFixedGasLimit": false
    }
  ],
  "receipts": [
    {
      "transactionHash": "0xdbfd7571adbba6a2decbab5cfe39417dc39ca0d50d2042f22f32a6ea6a40b287",
      "transactionIndex": "0x1",
      "blockHash": "0x91570f97c26448714ee2558fa9fcbb608317f03e0dc3eb7a64d185c8273f52aa",
      "blockNumber": "0x2cdb456",
      "from": "0x965B0E63e00E7805569ee3B428Cf96330DFc57EF",
      "to": "0x7Bb88774d8F2c15779C8f8278C4ed8E5729d1678",
      "cumulativeGasUsed": "0x18105",
      "gasUsed": "0xe9e5",
      "contractAddress": null,
      "logs": [
        {
          "address": "0x0000000000000000000000000000000000001010",
          "topics": [
            "0xe6497e3ee548a3372136af2fcb0696db31fc6cf20260707645068bd3fe97f3c4",
            "0x0000000000000000000000000000000000000000000000000000000000001010",
            "0x0000000000000000000000007bb88774d8f2c15779c8f8278c4ed8e5729d1678",
            "0x000000000000000000000000965b0e63e00e7805569ee3b428cf96330dfc57ef"
          ],
          "data": "0x0000000000000000000000000000000000000000000000003782dace9d9000000000000000000000000000000000000000000000000000003782dace9d9000000000000000000000000000000000000000000000000000004585a150a836ee3e00000000000000000000000000000000000000000000000000000000000000000000000000000000000000000000000000000000000000007d087c1f45c6ee3e",
          "blockHash": "0x91570f97c26448714ee2558fa9fcbb608317f03e0dc3eb7a64d185c8273f52aa",
          "blockNumber": "0x2cdb456",
          "transactionHash": "0xdbfd7571adbba6a2decbab5cfe39417dc39ca0d50d2042f22f32a6ea6a40b287",
          "transactionIndex": "0x1",
          "logIndex": "0x2",
          "removed": false
        },
        {
          "address": "0x7Bb88774d8F2c15779C8f8278C4ed8E5729d1678",
          "topics": [
            "0x69ca02dd4edd7bf0a4abb9ed3b7af3f14778db5d61921c7dc7cd545266326de2",
            "0x000000000000000000000000965b0e63e00e7805569ee3b428cf96330dfc57ef"
          ],
          "data": "0x0000000000000000000000000000000000000000000000003782dace9d900000",
          "blockHash": "0x91570f97c26448714ee2558fa9fcbb608317f03e0dc3eb7a64d185c8273f52aa",
          "blockNumber": "0x2cdb456",
          "transactionHash": "0xdbfd7571adbba6a2decbab5cfe39417dc39ca0d50d2042f22f32a6ea6a40b287",
          "transactionIndex": "0x1",
          "logIndex": "0x3",
          "removed": false
        },
        {
          "address": "0x0000000000000000000000000000000000001010",
          "topics": [
            "0x4dfe1bbbcf077ddc3e01291eea2d5c70c2b422b415d95645b9adcfd678cb1d63",
            "0x0000000000000000000000000000000000000000000000000000000000001010",
            "0x000000000000000000000000965b0e63e00e7805569ee3b428cf96330dfc57ef",
            "0x0000000000000000000000005082f249cdb2f2c1ee035e4f423c46ea2dab3ab1"
          ],
          "data": "0x000000000000000000000000000000000000000000000000000661bc0374dc00000000000000000000000000000000000000000000000000458e71e16c889c2e000000000000000000000000000000000000000000000779737cbf85bc1a9eb7000000000000000000000000000000000000000000000000458810256913c02e00000000000000000000000000000000000000000000077973832141bf8f7ab7",
          "blockHash": "0x91570f97c26448714ee2558fa9fcbb608317f03e0dc3eb7a64d185c8273f52aa",
          "blockNumber": "0x2cdb456",
          "transactionHash": "0xdbfd7571adbba6a2decbab5cfe39417dc39ca0d50d2042f22f32a6ea6a40b287",
          "transactionIndex": "0x1",
          "logIndex": "0x4",
          "removed": false
        }
      ],
      "status": "0x1",
      "logsBloom": "0x00000000000000000000000000000000000000000000000000000000020000000000000002000000000000100000000000008400000000000000000000000000000000000002000000000000800004900001000000000000000100000000000000000000002000000000000000000000000000000000000080000000000000000000000000000000000000200000000000000000000000000000000000000000200000000000000000000000000000000020000000000000000000000000004000000000000000000001000008000000000000400000800000108000000000000000000000000080000000000000000000000000000000000000000000100010",
      "type": "0x2",
      "effectiveGasPrice": "0x6fc23ac0f"
    }
  ],
  "libraries": [],
  "pending": [],
  "returns": {},
  "timestamp": 1710415884,
  "chain": 80001,
  "multi": false,
  "commit": "42834ae"
}