{
  "transactions": [
    {
      "hash": "0xd7a9c0d61939a83fd168bb4368c75ad32ecb14500be5493fcd3194d4c795fd11",
      "transactionType": "CALL",
      "contractName": null,
      "contractAddress": "0x203A36744dD130f1De981EC72c2144862aECE6AA",
      "function": "withdraw(address,uint256)",
      "arguments": [
        "0x965B0E63e00E7805569ee3B428Cf96330DFc57EF",
        "111200000000000000"
      ],
      "transaction": {
        "type": "0x02",
        "from": "0x965b0e63e00e7805569ee3b428cf96330dfc57ef",
        "to": "0x203a36744dd130f1de981ec72c2144862aece6aa",
        "gas": "0x14310",
        "value": "0x0",
        "data": "0xf3fef3a3000000000000000000000000965b0e63e00e7805569ee3b428cf96330dfc57ef000000000000000000000000000000000000000000000000018b0fcf93060000",
        "nonce": "0x146",
        "accessList": []
      },
      "additionalContracts": [],
      "isFixedGasLimit": false
    }
  ],
  "receipts": [],
  "libraries": [],
  "pending": [
    "0xd7a9c0d61939a83fd168bb4368c75ad32ecb14500be5493fcd3194d4c795fd11"
  ],
  "returns": {},
  "timestamp": 1710415915,
  "chain": 11155111,
  "multi": false,
  "commit": "42834ae"
}