{
  "transactions": [
    {
      "hash": "0xd7a9c0d61939a83fd168bb4368c75ad32ecb14500be5493fcd3194d4c795fd11",
      "transactionType": "CALL",
      "contractName": null,
      "contractAddress": "0x203A36744dD130f1De981EC72c2144862aECE6AA",
      "function": "withdraw(address,uint256)",
      "arguments": [
        "0x965B0E63e00E7805569ee3B428Cf96330DFc57EF",
        "111200000000000000"
      ],
      "transaction": {
        "type": "0x02",
        "from": "0x965b0e63e00e7805569ee3b428cf96330dfc57ef",
        "to": "0x203a36744dd130f1de981ec72c2144862aece6aa",
        "gas": "0x14310",
        "value": "0x0",
        "data": "0xf3fef3a3000000000000000000000000965b0e63e00e7805569ee3b428cf96330dfc57ef000000000000000000000000000000000000000000000000018b0fcf93060000",
        "nonce": "0x146",
        "accessList": []
      },
      "additionalContracts": [],
      "isFixedGasLimit": false
    }
  ],
  "receipts": [
    {
      "transactionHash": "0xd7a9c0d61939a83fd168bb4368c75ad32ecb14500be5493fcd3194d4c795fd11",
      "transactionIndex": "0x24",
      "blockHash": "0x04603139b19db7a9b05e41041f07b445c1f7a64586204ebebdcecfb05ab14cbe",
      "blockNumber": "0x53ad55",
      "from": "0x965B0E63e00E7805569ee3B428Cf96330DFc57EF",
      "to": "0x203A36744dD130f1De981EC72c2144862aECE6AA",
      "cumulativeGasUsed": "0x1e0b0f",
      "gasUsed": "0xe9e5",
      "contractAddress": null,
      "logs": [
        {
          "address": "0x203A36744dD130f1De981EC72c2144862aECE6AA",
          "topics": [
            "0x69ca02dd4edd7bf0a4abb9ed3b7af3f14778db5d61921c7dc7cd545266326de2",
            "0x000000000000000000000000965b0e63e00e7805569ee3b428cf96330dfc57ef"
          ],
          "data": "0x000000000000000000000000000000000000000000000000018b0fcf93060000",
          "blockHash": "0x04603139b19db7a9b05e41041f07b445c1f7a64586204ebebdcecfb05ab14cbe",
          "blockNumber": "0x53ad55",
          "transactionHash": "0xd7a9c0d61939a83fd168bb4368c75ad32ecb14500be5493fcd3194d4c795fd11",
          "transactionIndex": "0x24",
          "logIndex": "0xe",
          "removed": false
        }
      ],
      "status": "0x1",
      "logsBloom": "0x00000000000000000000000000000000000000000040000000000000000000000000000000000000020000000000000000000400000000000000000000000000000000000002000000000000800004100000000000000000000000000000000000000000000000000000000000000000000000000000000000000000000000000000000000000000000000200000000000000000000000000000000000000000000000000000000000000000000000001000000000000000000000000000000000000000000000000000000000000000000000000000000000000000000000000000000000000000000000000000000000000000000000000000000000000000",
      "type": "0x2",
      "effectiveGasPrice": "0x10bce02d1a"
    }
  ],
  "libraries": [],
  "pending": [],
  "returns": {},
  "timestamp": 1710415922,
  "chain": 11155111,
  "multi": false,
  "commit": "42834ae"
}